:1000000004308A00862C0000D732EC31EF366500D0
:10001000C3306E106336EF3965106937A012641073
:1000200073002A10F437A0326E3A65392028570041
:100030002310F437A031E830EE336510D02B0001E7
:100040004537F4327210F030F339F73772323A0034
:10005000C3377239E5317410F030F339F737723243
:10006000000157396F376710F030F339F7377232C4
:1000700000014537F43272106F366410D02B3A000D
:100080004537F4327210EE327710D02B3A00D02B75
:100090002034E1392031E5326E10F33274005739E3
:1000A0006F376710F030F339F737723200003C30A9
:1000B00084008313000803196A280630F800F7014A
:1000C000F70B6028F80B5F287B30F700F70B6628EA
:1000D000800B5D28080043186F2808127028081646
:1000E000831608128312C318772888127828881676
:1000F00083168812831243197F2808138028081753
:10010000831608138312C319872888138828881731
:100110008316881300008312881583168811033014
:10012000F700F70B91288312881183168811831228
:100130000800C4018316081600308312081A013023
:10014000C4048316881600308312881A0130F70021
:100150000310F70D7708C4048316081700308312C4
:10016000081B0130F700F70DF70DFC30F705770895
:10017000C4048316881700308312881B0130F700EF
:10018000F70DF70DF70DF830F7057708C4044408AC
:10019000F80008008316881188100811831288104F
:1001A00083168810081688160817881783120815F2
:1001B0008316081100008312881583168811000029
:1001C000831299207808C3008811831688110000D3
:1001D0008312881583168811ED28EE2800008312FB
:1001E00099207808C2008811831688110812881295
:1001F000081388138312430EF700F030F7057708D1
:100200004204F8007808C200C21F08298316D228C9
:10021000C008031D0D2988100E2988148316881024
:100220000000831208118316081100008312881140
:10023000831688118312410EC2000F30C205420896
:10024000C3006B2041080F39C200C3006B200800B7
:100250002830B6000C30B7000130B8000630B900C5
:1002600088118316881183128810831688108312D0
:1002700008118316081108128812081388138811B0
:10028000881008110F308312BC0057200130B500D0
:100290003508033C031C54290330C3006B20053090
:1002A000BC005720B50A48290230C3006B20053036
:1002B000BC005720B5013508033C031C6B293630C0
:1002C0003507840083130008BA00C0013A08C10052
:1002D000CA20B50A5B298A110A12A82C3D0B712984
:1002E00074294030BE007529BE0101303C02BE07B2
:1002F0003E088038BF00C0013F08C100CA20080086
:100300003B08073A03198E290B3A03199329063A39
:1003100003199B29023A0319A129A6290130BC001F
:10032000BD006E21AB29C0010130C100CA200230DE
:10033000BC005720AB290130BC000230BD006E214B
:10034000AB29C0011030C100CA20AB290130C00068
:100350003B08C100CA2008000B08B5008B138316A8
:1003600003178C170C140000000083120313B51B35
:100370008B1703170C087F390319002A0313B500E4
:1003800003170D080313B60003170F080313B70074
:100390003508BB008021360803178D00031337088A
:1003A00003178F0003130B08B8008B138316031772
:1003B0008C170C140000000083120313B81B8B175A
:1003C00003170C0D0E0D7F390319002A0313B50016
:1003D00003170D080313B60003170F080313B70024
:1003E0003508BB008021360803178D00031337083A
:1003F00003178F008D0A03198F0A0313AC29031703
:100400000313080031123108831687008312071284
:10041000B112310883168700831287163113310811
:100420008316870083120717B113310883168700DC
:1004300083128717831606168312061A232A37306B
:10044000F800F02A3D2A831686168312861A2C2A73
:100450003430F800F02A3D2A831606178312061B53
:10046000352A3130F800F02A3D2A83168617831288
:10047000861B3D2A2A30F800F02A311231088316F3
:10048000870083120716B112310883168700831282
:100490008712311331088316870083120717B113AF
:1004A0003108831687008312871783160616831276
:1004B000061A5E2A3830F800F02A782A8316861643
:1004C0008312861A672A3530F800F02A782A8316B4
:1004D00006178312061B702A3230F800F02A782A99
:1004E000831686178312861B782A3030F800F02A8C
:1004F000311231088316870083120716B1123108B2
:1005000083168700831287163113310883168700FC
:1005100083120713B11331088316870083128717DC
:10052000831606168312061A992A3930F800F02A23
:10053000B32A831686168312861AA22A3630F8004A
:10054000F02AB32A831606178312061BAB2A333010
:10055000F800F02AB32A831686178312861BB32A63
:100560002330F800F02A31123108831687008312F5
:100570000716B112310883168700831287163113CC
:1005800031088316870083120717B11331088316C9
:10059000870083128713831606168312061AD42A3D
:1005A0004130F800F02AEE2A831686168312861A46
:1005B000DD2A4230F800F02AEE2A8316061783124D
:1005C000061BE62A4330F800F02AEE2A8316861727
:1005D0008312861BEE2A4430F800F02AFF30F80020
:1005E000080002227808B700370FF72AF12A022202
:1005F000780FF72A3708F8000800A00120080F3C00
:10060000031C2D2B21302007F800FA010318FA0AE9
:100610007808B5007A08B600F12235088400831303
:100620003618831778088000213020078400831350
:100630000008233C03192D2B01302007B500BC0016
:100640000230BD006E212130200784008313000892
:10065000B500BB008021A00AFE2A0800A0012008E6
:100660000F3C031C4A2B200803178D0083168C13A4
:100670000C1483120C080313B500213020078400EA
:100680008313000835020319482B0030F8004C2B67
:10069000A00A2F2B0130F8000800A00120080F3C11
:1006A000031C5A2B21302007840083133030800034
:1006B000A00A4E2B08003C08F8013B020318632BEC
:1006C0003B08F7006F2BF7010830BD00BB0DF70D9D
:1006D0003C0877020318F700F80DBD0B662B0800E5
:1006E0000530BC000130BD006E21043003178D00C1
:1006F00000308F000313AC213110310883168700BE
:10070000831207140530A000A0080319542C0130EF
:10071000BC000230BD006E21083003178D00003090
:100720008F0003100D300313B5000B08B6008B13B8
:10073000831603178C170C14000000008312031398
:10074000B61B8B170318CC2B03170C087F39031328
:10075000B60003170D080313B70003170F080313A0
:10076000B8003608BB008021370803178D0003133B
:10077000380803178F0003130B08B9008B13831677
:1007800003178C170C140000000083120313B91B0D
:100790008B17B50BCC2BEB2B03170C0D0E0D7F39E4
:1007A0000313B60003170D080313B70003170F0850
:1007B0000313B8003608BB008021370803178D00EB
:1007C0000313380803178F008D0A03198F0A0310CB
:1007D0000313B50B952B2008B5001830B600203058
:1007E000361E3030B7003508F700B51FFF2BF7096C
:1007F000F70A7708B5002D30B700B617361435085C
:10080000BB006430BC005B237708B500303078074C
:10081000B8003508BB000A30BC005B2330307707D6
:10082000BA0030307807B9003708F70030303802A6
:1008300003191E2CB614B61B3615322C3708B80017
:100840002030B7003030390203192A2C3614B61B79
:10085000B614322C031D3614031D322C3808B9008F
:100860002030B8003619392CB6183C2C36183F2CDD
:10087000422C3708BB0080213808BB008021390892
:10088000BB0080213A08BB0080212030BB008021C2
:100890007330BB0080210430B500FA30BC00572013
:1008A000B50B4D2CA003842B311031088316870023
:1008B000831207108A110A12F72CA00120080F3C9E
:1008C000031C832C21302007840083130008B5000B
:1008D0000B08F7008B13200803178D00031335084E
:1008E00003178C0083168C130C1555308D00AA301D
:1008F0008D008C148C187A2C0C117708831203133A
:100900008B04A00A5E2C8A110A12372D03081F39A6
:100910008300FF30B100B301B20183161F149F148E
:100920001F159F1107309C00831330308312A100E4
:10093000A200A300A400A500A600A700A800A9008B
:10094000AA00AB00AC00AD00AE00AF00B00028299B
:10095000FF308316860081130C308312BB00802188
:100960000130BC00BD006E21113003178D00003036
:100970008F000313AC210130BC000230BD006E219A
:10098000183003178D0000308F000313AC21F122C3
:100990007808B40034082A3C031D102D0C30BB002D
:1009A00080210130BC00BD006E21203003178D0076
:1009B00000308F000313AC21FD222E23780BF82C7E
:1009C0000130BC00BD006E21283003178D000030BF
:1009D0008F000313AC214D230830B500FA30BC0062
:1009E0005720B50BEE2C0C30BB008021702B0F2D47
:1009F0002E23F808031D0F2D0130BC00BD006E2111
:100A0000313003178D0000308F000313AC214D23CC
:100A10000830B500FA30BC005720B50B0A2D652D03
:100A20003408233C031D652D0C30BB0080210130B0
:100A3000BC00BD006E21393003178D0000308F00DF
:100A40000313AC21FD222E23780B4E2D0C30BB005E
:100A500080210130BC00BD006E21403003178D00A5
:100A600000308F000313AC214D23FD225D2C4D235C
:100A70000C30BB0080210130BC00BD006E2147302E
:100A800003178D0000308F000313AC210830B50030
:100A9000FA30BC005720B50B482D652D2E23F808E1
:100AA000031D652D0130BC00BD006E214F300317C2
:100AB0008D0000308F000313AC214D230830B500AA
:100AC000FA30BC005720B50B602D8316AC2C6300A8
:02400E00723FFF
:00000001FF
;PIC16F877A
;CRC=F3F3  CREATED="12-Sep-22 14:19"
